:020000040800F2
:100000004808002045010008231200088511000857
:100010002112000821020008051600080000000057
:100020000000000000000000000000000B130008AA
:100030002302000800000000091300080D13000847
:100040005F0100085F0100085F0100085F01000810
:100050005F0100085F0100085F0100085F01000800
:100060005F0100085F0100085F0100085F010008F0
:100070005F0100085F0100085F0100085F010008E0
:100080005F0100085F0100085F0100085F010008D0
:100090005F0100085F0100085F0100085F010008C0
:1000A0005F0100085F0100085F0100085F010008B0
:1000B0005F0100085F0100085F0100085F010008A0
:1000C0005F0100085F0100085F0100085F01000890
:1000D0005F010008F91500085F0100085F010008D2
:1000E0005F0100085F0100085F0100085F01000870
:1000F0005F0100085F0100085F0100085F01000860
:100100005F0100085F0100085F0100085F0100084F
:100110005F0100085F0100085F0100085F0100083F
:100120005F0100085F0100085F0100085F0100082F
:10013000DFF80CD000F062F80048004755170008BF
:10014000480800200648804706480047FEE7FEE7CB
:10015000FEE7FEE7FEE7FEE7FEE7FEE7FEE7FEE777
:100160006F13000831010008D2B201E000F8012B42
:10017000491EFBD270470022F6E710B513460A4627
:1001800004461946FFF7F0FF204610BD30B505467E
:100190002A460B4612F8010B13F8014B08B1A04296
:1001A000F8D01CB1002802D06D1CF1E7284630BD04
:1001B00010B5044604E00B7800F8013B03B1491C7C
:1001C000521EF8D2204610BDCAB2401E10F8011FC0
:1001D0008A4202D00029F9D10020704730B5054687
:1001E0000020034600E05B1C934205D2EC5CC85C37
:1001F000201A01D1002CF6D130BD0000064C074D6D
:1002000006E0E06840F0010394E8070098471034E6
:10021000AC42F6D3FFF790FF201800084018000802
:10022000FEE7704770B514A001F0EEF94FF47A7450
:10023000204600F019F912A001F0E6F96500284601
:1002400000F012F915A001F0DFF9204600F00CF9DA
:1002500016A001F0D9F9204600F006F91EA001F021
:10026000D3F9204600F000F91F4801F0CDF92846E7
:10027000BDE8704000F0F8B841540D0A00000000DD
:1002800041542B43574A41503D22424B222C2231AC
:100290003233343536373839220D0A0041542B4376
:1002A00049504D4F44453D310D0A000041542B4308
:1002B000495053544152543D22544350222C226100
:1002C00070692E73656E6976657273652E636F6DE6
:1002D000222C38300D0A000041542B43495053451D
:1002E0004E440D0A00000000B017000872B6FEE789
:1002F00010B590F821100022022905D00421816355
:1003000080F82020012010BD01680B6823F00E0347
:100310000B6001680B6823F001030B6090F840301C
:10032000C46B012101FA03F3636080F8211080F8A7
:100330002020104610BD00002DE9F05F90F821103C
:100340000024022903D004218163012485E001688F
:100350000A6822F00E020A6001680A6822F00102AF
:100360000A603F4E3E4FB215DFF8F4C0DFF8F09060
:10037000DFF8ECA0DFF8E8B0DFF8E4E00168783FF0
:1003800013011502ACF1640CA9F15009AAF13C0A61
:10039000ABF1280BAEF1140E4FF48018B14227D9FF
:1003A000B9420ED0614512D049451DD0514518D0F3
:1003B000594518D0714501D1424615E0294EB14248
:1003C00001D1012210E0274E1436B14201D1102292
:1003D0000AE0244E2836B14206D0224A3C329142ED
:1003E00001D11A4600E02A461E49091F0A602BE087
:1003F000B94213D0614517D0494522D051451DD08F
:1004000059451DD0714501D142461AE0B14202D191
:100410004FF0807215E0134EB14201D1012210E07D
:10042000104E1436B14201D110220AE00D4E28368A
:10043000B14206D00B4A3C32914201D11A4600E04B
:100440002A46074980394A60012180F8211000219D
:1004500080F82010416B01B188472046BDE8F09F2D
:10046000800002400804024070B5044600F010F914
:100470000546601C02D004480078044400F008F9E6
:10048000401BA042FAD370BD040000202DE9F84FB4
:10049000DFF8C8910024A9F1040B23460F2709F1C6
:1004A000040AABF1040ED1E00125A54006EA0502DD
:1004B000AA4276D1DFF8A8C14E68A6EB0C086645C3
:1004C0002BD00DDC032E34D005DC36B3012E19D031
:1004D000022E2FD11BE0112E16D0122E2AD119E098
:1004E000B8F5881F19D006DCB8F5803F15D0B8F5EF
:1004F000801F1FD111E0B8F5001F0ED0B8F5041F02
:1005000018D10AE0CB6815E0CB681B1D12E0CB6860
:1005100008330FE0CB680C330CE08B682BB1012B58
:100520004FF0080303D0456104E0042302E00561B5
:1005300000E00023FF2A01D8064601E000F104068E
:100540004FEA840501D9A5F12005D6F8008007FA05
:1005500005FC28EA0C0803FA05F548EA0508C6F880
:1005600000804D68ED0070D53E4DAE6946F0010645
:10057000AE61AD6924F0030605F0010500953A4D22
:1005800006EB050CDCF80850A607360F07FA06F84C
:1005900025EA0805DFF8D480404503D14FF0000874
:1005A00025E052E0DFF8C880404502D14FF0010855
:1005B0001DE0DFF8C080404502D14FF0020816E090
:1005C000DFF8B480404502D14FF003080FE0DFF8B8
:1005D000AC80404502D14FF0040808E0DFF8A0806D
:1005E000404502D14FF0050801E04FF0060808FA37
:1005F00006F848EA0508CCF808804D68D9F800608C
:10060000ED024D4601D5164300E096432E604D683D
:10061000DAF80060AD02554601D5164300E0964376
:100620002E604D68DBF80060AD035D4601D51643D2
:1006300000E096432E604D68DEF80060ED037546DD
:1006400001D5164300E096432E60641C0A681646E6
:10065000E2407FF429AFBDE8F88F000008040140B4
:10066000000011100010024000000140000801408D
:10067000000C01400010014000140140001801402E
:10068000001C01400AB1016170470904FBE700004A
:10069000014880687047000004000020024881681B
:1006A000027811448160704704000020074810B5AB
:1006B000016841F010010160032000F075F80F207F
:1006C00000F006F800F024F8002010BD00200240E1
:1006D00070B50D4D04464FF47A712878B1FBF0F0F7
:1006E0000A490968B1FBF0F000F0DCFA48B9102CB7
:1006F00007D200222146501E00F036F800206C6020
:1007000070BD012070BD000004000020100000201A
:100710000C4808B5816941F001018161816901F0EE
:1007200001010091C16941F08051C161C06900F0CF
:10073000805000900448416821F0E06141F0007170
:10074000416008BD0010024000000140002809DBA4
:1007500000F01F02012191404009800000F1E020DB
:10076000C0F8001170470000F0B40E4B1B680C4637
:10077000C3F30223C3F10705042D00D90425191D75
:10078000072901D2002300E0DB1E012606FA05F14D
:10079000491E214099409E40761E16403143F0BCD0
:1007A00000F042BF0CED00E0064900F007020868C7
:1007B0004FF6FF03184040EA0220034A1043086046
:1007C000704700000CED00E00000FA052DE9F0474D
:1007D0000F46050061D0434E306800F00700B84274
:1007E00009D2306820F0070038433060306800F0EC
:1007F0000700B84251D128683B4C810712D5400709
:1008000003D5606840F4E06060602878000703D595
:10081000606840F4605060606068A96820F0F00093
:10082000084360602878C00728D06868012810D085
:100830002168022810D0890700292EDA616821F08A
:10084000030101436160FFF723FF804641F28839CD
:100850000DE021688903EFE78901EDE7FFF718FF55
:10086000A0EB0801494502D90320BDE8F087606884
:10087000696800F00C00B0EB810FEFD1306800F038
:100880000700B8420BD9306820F0070038433060C9
:10089000306800F00700B84201D00120E5E7287871
:1008A000400705D56068E96820F4E06008436060AF
:1008B0002878000706D56068296920F4605040EA6E
:1008C000C100606000F038F86168084AC1F30311A4
:1008D000515CC8400649086006480068FFF7F8FE0A
:1008E0000020C2E7002002400010024096170008D6
:1008F00010000020080000200448054900684968ED
:10090000044AC1F30221515CC84070471000002026
:1009100000100240A617000804480549006849680D
:10092000044AC1F3C221515CC84070471000002046
:1009300000100240A61700080E4A51680E4801F048
:100940000C03042B11D0082B0FD10C48C1F38343A7
:10095000C903C05C0AD55168084AC1F34041921EE0
:10096000515C054A5043B0FBF1F0704704494843DD
:10097000704700000010024000127A00861700083D
:1009800000093D002DE9F84F040070D02078C04DDB
:10099000C00749D06868C0F38100012807D06868A3
:1009A000C0F38100022809D16868C00306D5286811
:1009B000800339D560680028E7D035E06068B0F57D
:1009C000803F0BD010B1B0F5A02F11D0286820F4D3
:1009D00080302860286820F4802002E0286840F4F5
:1009E00080302860606890B1FFF752FE06460AE04A
:1009F000286840F480202860F0E700BFFFF748FE39
:100A0000801B642873D828688003F7D50CE0FFF7B3
:100A10003FFE064605E000BFFFF73AFE801B642854
:100A2000F0D828688003F7D420789A4E80074FF0DA
:100A300001094FF0000839D5686810F00C0F07D095
:100A40006868C0F38100022809D16868C00306D431
:100A50002868800714D52069012808D110E0206992
:100A6000B0B1C6F80090FFF713FE074605E00AE1B3
:100A7000FFF70EFEC01B0228C4D828688007F7D5F0
:100A80002868616920F0F80040EAC10028600DE0A4
:100A9000C6F80080FFF7FCFD074604E0FFF7F8FD0D
:100AA000C01B022823D828688007F7D420780007C5
:100AB0002CD57948A169D9B1C0F80090FFF7E8FDBD
:100AC000074604E0FFF7E4FDC01B02280FD8686A60
:100AD0008007F7D571484FF4FA510068B0FBF1F088
:100AE000009000BF0098411E0091FAD20EE080E015
:100AF000C0F80080FFF7CCFD074604E0FFF7C8FD13
:100B0000C01B022875D8686A8007F7D42078400790
:100B100060D5E8690027C00008D4E86940F080503B
:100B2000E861E869012700F0805000905C480168A6
:100B3000C90513D40168834641F480710160FFF751
:100B4000A7FD824606E000BFFFF7A2FDA0EB0A006A
:100B500064284ED8DBF80000C005F5D5E068012810
:100B60000AD008B1052813D0286A20F001002862B5
:100B7000286A20F0040002E0286A40F001002862A0
:100B8000E06841F2883B98B1FFF782FD82460BE0B6
:100B9000286A40F004002862EEE700BFFFF778FD06
:100BA000A0EB0A0159455AD8286A8007F6D50CE00F
:100BB000FFF76EFD824605E0FFF76AFDA0EB0A0134
:100BC00059454CD8286A8007F6D41FB1E86920F04F
:100BD0008050E861E06988B36968C1F38101022946
:100BE00044D00228C6F8608004D0FFF751FD0446C7
:100BF00038E034E0FFF74CFD074604E0FFF748FD1E
:100C0000C01B02282BD828688001F7D4206AB0F5D1
:100C1000803F05D16868A16820F40030084368600F
:100C2000D4E908010843696821F474110843686035
:100C3000C6F86090FFF72CFD044606E025E000BFF3
:100C4000FFF726FD001B022809D828688001F7D588
:100C50001BE000BFFFF71CFD001B022802D9032088
:100C6000BDE8F88F28688001F4D40EE00128F7D0A1
:100C70006868226A00F48031914204D1616A00F40C
:100C80007010884201D00120EAE70020E8E7000068
:100C90000010024000004242800442421000002046
:100CA0000070004010B5401EB0F1807F01D30120DC
:100CB00010BD4FF0E02460610F21601700F0B4FC1C
:100CC0000020A06107202061002010BD7047704700
:100CD000F8B5016804460868CA684B6910F00F0F40
:100CE0004FF0000559D003F0010602F49077374326
:100CF00065D0C10705D0D10503D5616C41F0010174
:100D00006164410705D5D90703D0616C41F0020148
:100D10006164810705D5D90703D0616C41F00401F6
:100D20006164010707D502F02001314303D0616CF3
:100D300041F008016164616C00293AD0800604D555
:100D4000900602D5204600F042FB20684069616CA5
:100D5000C0F38010090700D460B3204600F010FBF8
:100D600020684069400621D52068143050E8001FF3
:100D700021F0400140E80012002AF5D1E06BA8B153
:100D80006D494163E06BFFF7D7FA002811D0E06BA3
:100D9000416B01B0BDE8F040084783060FD59306CC
:100DA0000DD52046BDE8F84000F011BB2046FFF706
:100DB0008EFFF8BD2046FFF78AFF6564F8BD266BFD
:100DC0002023012E7CD1C6067AD5D60678D50868B0
:100DD0004868009048694FF00206400640D5E16B34
:100DE000086840680004000CE8D0A28D8242E5D972
:100DF000E085886920282DD020680C3050E8001F3D
:100E000021F4807140E80012002AF5D120681430E6
:100E100050E8001F21F0010140E80012002AF5D13E
:100E20002068143050E8001F21F0400140E8001213
:100E3000002AF5D184F84230256320680C3050E850
:100E4000001F21F0100140E80012002AF5D1E06BEC
:100E5000FFF74EFA6663A08DE18D401A81B22AE059
:100E6000A08DE18D401A81B2E08D0028A6D0002926
:100E7000A4D022680C3252E8000F20F4907042E8AF
:100E80000007002FF5D12068143050E8002F22F021
:100E9000010240E80027002FF5D184F84230256395
:100EA00020680C3050E8002F22F0100240E80023A8
:100EB000002BF5D166632046FFF708FFF8BDFFE77A
:100EC00005062BD5150629D594F841002128F5D122
:100ED000A068B0F5805F01D12069B0B1206A411CE3
:100EE0002162216800784860E08C401E0004000CFC
:100EF000E084E3D12068C16821F08001C1602068EE
:100F0000C16841F04001C160D8E7206A0088C0F3A1
:100F100008004860206A801C2062E5E74006CDD5C5
:100F20005006CBD5CA68204622F04002CA6084F839
:100F3000413000F026F9C1E77113000870B50400D4
:100F400004D094F84100002510B106E0012070BDE6
:100F500084F84050204600F023F8242084F8410013
:100F60002068C16821F40051C160204600F090FA69
:100F70002068016921F4904101612068416921F0F4
:100F80002A0141612068C16841F40051C160656473
:100F9000202084F8410084F842006563002070BD81
:100FA00030B585B000240094019402940394006845
:100FB000184988422CD11848816941F480418161E7
:100FC000816901F480410491816941F004018161EA
:100FD0008069124D00F0040004904FF400700090FE
:100FE000022001900320039069462846FFF74EFA3D
:100FF0002815CDE90004694628460294FFF746FA11
:10100000002211462520FFF7AFFB2520FFF79EFBAE
:1010100005B030BD0038014000100240000801401A
:1010200090F84230202B01D00220704721B11AB134
:101030000023036300F088BA0120704710B50068F0
:101040002049884235D1204840F2E7314C1C428883
:101050008A420DD30021418021461C48FFF78BF8BE
:101060004FF6FF730A221AA11C4800F03DF820E059
:10107000164B41789954521C91B24180194411F891
:10108000012C0A2A15D111F8021C0D2911D10121B8
:101090000170022212A11846FFF7A0F848B92146B4
:1010A0000A48FFF768F800224FF480710D48FFF7F7
:1010B000E9FA05490122BDE81040491C0748FFF73D
:1010C000AFBF000000380140000000206000002099
:1010D000CAFDBEDDD2E7B3F6000000001800002014
:1010E0004F4B0000000801402DE9F843044690F8FA
:1010F00041001F4616460D46202802D00220BDE8BA
:10110000F8837DB176B100206064212084F841002D
:10111000FFF7BEFAA6848046E684A068B0F5805F3B
:1011200002D003E00120EAE7206910B12E46002535
:101130000EE000260CE08021204600F020FAA0B945
:10114000AEB116F8010B21684860E08C401EE084C7
:10115000E08C43464FF0000200970028EBD14FF09F
:101160004001204600F00BFA30B10320C7E735F804
:10117000020BC0F30800E6E7202084F841000020BD
:10118000BDE77047FEE7000070B586B00024144844
:101190000094019402940394816941F020018161DB
:1011A000816901F020010491816941F004018161AC
:1011B0008069012200F004000A4E150204902946BD
:1011C0003046FFF75FFA01200095CDE901040220C7
:1011D000039069463046FFF759F906B070BD00002C
:1011E00000100240000801400C4810B50A49016097
:1011F0004FF4E1314160002181600C22C160C0E9FF
:1012000004128161C161FFF799FE002803D0BDE897
:101210001040FFF76BB810BD0038014018000020E7
:10122000FEE7FEE7F0B585B07B212248FEF7CCFF54
:1012300000283CD020A1FEF7A9FF060037D020A14E
:10124000FEF7A4FF04004FF0000517D000224FF472
:1012500080711F48FFF716FA0F3422212046FEF74F
:10126000B3FF58B1071B3A4621466846FEF7A0FF78
:101270000DF80750694617A000F0C6F91BA13046CB
:10128000FEF784FF002812D0083004462221FEF722
:101290009BFF00280BD0061B324621466846FEF70E
:1012A00087FF0DF80650694613A000F0ADF905B0B0
:1012B000F0BD000060000020226E6F77223A7B00B4
:1012C0002274656D7065726174757265223A2200D0
:1012D0000008014054656D70657261747572653AFD
:1012E000202573A1E3430D0A0000000022746578F5
:1012F00074223A2200000000576561746865723AF2
:101300002025730D0A00000070477047FFF7C6B92B
:1013100030B58FB028216846FEF72DFF14210AA8AA
:10132000FEF729FF01210804CDE9001000240294F2
:1013300002250491CDE907504FF4E010099068466A
:10134000FFF720FB08B172B6FEE70F20CDE90A05D2
:101350004FF48060CDE90C4002210AA80E94FFF7FB
:1013600035FA002801D072B6FEE70FB030BD7047E5
:1013700010B5406A0021C185C184FFF7A8FC10BDEB
:1013800001680C3151E8002F22F4907241E80023EB
:10139000002BF5D10168143151E8002F22F0010231
:1013A00041E80023002BF5D1016B012909D1016827
:1013B0000C3151E8002F22F0100241E80023002BED
:1013C000F5D1202180F8421000210163704708B553
:1013D00090F84210222901D0022008BD82684FF403
:1013E00080539A4201D1016921B1816A9A421BD08E
:1013F0004AB10AE00268816A5268C2F308020A80B0
:10140000816A891C08E0026972B10268526802F0C0
:101410007F020A70816A491C8162C18D491E0904DC
:10142000090CC18503D01BE002685268F1E701682E
:10143000CA6822F02002CA600168CA6822F4807279
:10144000CA6001684A6922F001024A61202180F8DD
:10145000421000214163026B012A03D0FFF7EEFD29
:10146000002008BD016301680C3151E8002F22F013
:10147000100241E80023002BF5D101680A68D2066A
:1014800002D50A6849680091818DFFF71FFCE7E7E4
:1014900070B5044600680169E26821F440511143C7
:1014A00001612169A0680843616908432168CA682D
:1014B00041F20C639A430243CA6020684169A26901
:1014C00021F44071114341611E492068884202D1D4
:1014D000FFF722FA01E0FFF70FFA00EBC00101EB82
:1014E0000012606864218000B2FBF0F3B3FBF1F3FB
:1014F0006FF018067343B2FBF0F5B2FBF0F605EBA4
:101500008305322303EB0515B5FBF1F5B6FBF1F6C8
:1015100005F0F00505EB0615B2FBF0F6B2FBF0F0B6
:10152000B0FBF1F06FF01802504306EB800003EBC4
:101530000010B0FBF1F0216800F00F002844886033
:1015400070BD00000038014081628285C2850021A3
:101550004164222180F84210016921B10168CA6802
:1015600042F48072CA6001684A6942F001024A612D
:101570000068C16841F02001C160002070472DE97A
:10158000F041984617460E460446069D27E0681C23
:1015900025D02DB1FFF77CF8A0EB0800A8421ED99A
:1015A00020680C3050E8001F21F4D07140E8001290
:1015B000002AF5D12068143050E8001F21F0010105
:1015C00040E80012002AF5D1202084F8410084F878
:1015D0004200002084F840000320BDE8F08120682C
:1015E000006836EA000004D00020B842CFD00020C6
:1015F000F3E70120F9E700000148FFF769BB0000AD
:1016000018000020FEE700000FB4054B10B503A939
:10161000044A029800F027F810BC5DF814FB0000A3
:101620003D170008140000200907090E002804DBFC
:1016300000F1E02080F80014704700F00F0000F186
:10164000E02080F8141D704702E008C8121F08C18E
:10165000002AFAD170477047002001E001C1121F33
:10166000002AFBD170472DE9F84F994692468846EB
:101670000546002706E025280AD051464A469047ED
:101680006D1C7F1C28780028F5D13846BDE8F88FFE
:10169000002315F8011F18462E2915D115F8011F32
:1016A00004232A290DD06FF02F022978A1F13004EC
:1016B000092C09D800EB800002EB400008446D1CA7
:1016C000F3E758F8040B6D1C2A78002ADDD0632A52
:1016D00007D0732A0FD0104651464A4690477F1CC8
:1016E0002AE018F8042B8DF8002000218DF8011055
:1016F0006E46012103E058F8046B4FF0FF315A07A2
:101700004FF0000401D409E0641C84420BDA8C42DF
:10171000FADB325D002AF7D105E0641C8C42FCDB69
:10172000305D0028F9D1274404E016F8010B51463A
:101730004A469047641EF8D26D1CA3E704490A6824
:101740005206FCD5024AC1B2121D1160704700005A
:1017500000380140FEF7AAFFFFF7DAFDFFF714FD9E
:10176000FFF742FD012205490548FFF759FCFEF746
:1017700059FD00BFFFF756FDFCE700000100002007
:1017800018000020010202030405060708090A0BDD
:101790000C0D0E0F101000000000000000000102F0
:1017A000030406070809000000000102030400000A
:1017B0004745542068747470733A2F2F6170692EF6
:1017C00073656E6976657273652E636F6D2F763300
:1017D0002F776561746865722F6E6F772E6A736FED
:1017E0006E3F6B65793D5378305742566A6C766D23
:1017F0004F6664435A6554266C6F636174696F6EFB
:101800003D6265696A696E67266C616E67756167BE
:10181000653D656E26756E69743D630D0A000000B6
:1018200040180008000000201800000048160008BA
:10183000581800081800002030080000581600084A
:101840000000000001000000100000000000000087
:081850000024F4000000000078
:0400000508000131BD
:00000001FF
