:020000040800F2
:10000000A0080020450100085B1800089D140008A6
:100010005918000821020008491E000800000000CD
:100020000000000000000000000000004F1B00085E
:1000300023020008000000004D1B0008511B0008AF
:100040005F0100085F0100085F0100085F01000810
:100050005F0100085F0100085F0100085F01000800
:100060005F0100085F0100085F0100085F010008F0
:100070005F0100085F0100085F0100085F010008E0
:100080005F0100085F0100085F0100085F010008D0
:100090005F0100085F0100085F0100085F010008C0
:1000A0005F0100085F0100085F0100085F010008B0
:1000B0005F0100085F0100085F0100085F010008A0
:1000C0005F0100085F0100085F0100085F01000890
:1000D0005F0100083D1E00085F0100085F01000885
:1000E0005F0100085F0100085F0100085F01000870
:1000F0005F0100085F0100085F0100085F01000860
:100100005F0100085F0100085F0100085F0100084F
:100110005F0100085F0100085F0100085F0100083F
:100120005F0100085F0100085F0100085F0100082F
:10013000DFF80CD000F062F800480047E11F00082B
:10014000A00800200648804706480047FEE7FEE773
:10015000FEE7FEE7FEE7FEE7FEE7FEE7FEE7FEE777
:10016000B31B000831010008D2B201E000F8012BF6
:10017000491EFBD270470022F6E710B513460A4627
:1001800004461946FFF7F0FF204610BD30B505467E
:100190002A460B4612F8010B13F8014B08B1A04296
:1001A000F8D01CB1002802D06D1CF1E7284630BD04
:1001B00010B5044604E00B7800F8013B03B1491C7C
:1001C000521EF8D2204610BDCAB2401E10F8011FC0
:1001D0008A4202D00029F9D10020704730B5054687
:1001E0000020034600E05B1C934205D2EC5CC85C37
:1001F000201A01D1002CF6D130BD0000064C074D6D
:1002000006E0E06840F0010394E8070098471034E6
:10021000AC42F6D3FFF790FFD0280008F028000882
:10022000FEE7704770B514A001F034FE4FF47A7405
:10023000204600F019F912A001F02CFE65002846B6
:1002400000F012F915A001F025FE204600F00CF98F
:1002500016A001F01FFE204600F006F91EA001F0D6
:1002600019FE204600F000F91F4801F013FE284651
:10027000BDE8704000F0F8B841540D0A00000000DD
:1002800041542B43574A41503D22424B222C2231AC
:100290003233343536373839220D0A0041542B4376
:1002A00049504D4F44453D310D0A000041542B4308
:1002B000495053544152543D22544350222C226100
:1002C00070692E73656E6976657273652E636F6DE6
:1002D000222C38300D0A000041542B43495053451D
:1002E0004E440D0A000000006028000872B6FEE7C8
:1002F00010B590F821100022022905D00421816355
:1003000080F82020012010BD01680B6823F00E0347
:100310000B6001680B6823F001030B6090F840301C
:10032000C46B012101FA03F3636080F8211080F8A7
:100330002020104610BD00002DE9F05F90F821103C
:100340000024022903D004218163012485E001688F
:100350000A6822F00E020A6001680A6822F00102AF
:100360000A603F4E3E4FB215DFF8F4C0DFF8F09060
:10037000DFF8ECA0DFF8E8B0DFF8E4E00168783FF0
:1003800013011502ACF1640CA9F15009AAF13C0A61
:10039000ABF1280BAEF1140E4FF48018B14227D9FF
:1003A000B9420ED0614512D049451DD0514518D0F3
:1003B000594518D0714501D1424615E0294EB14248
:1003C00001D1012210E0274E1436B14201D1102292
:1003D0000AE0244E2836B14206D0224A3C329142ED
:1003E00001D11A4600E02A461E49091F0A602BE087
:1003F000B94213D0614517D0494522D051451DD08F
:1004000059451DD0714501D142461AE0B14202D191
:100410004FF0807215E0134EB14201D1012210E07D
:10042000104E1436B14201D110220AE00D4E28368A
:10043000B14206D00B4A3C32914201D11A4600E04B
:100440002A46074980394A60012180F8211000219D
:1004500080F82010416B01B188472046BDE8F09F2D
:10046000800002400804024070B5044600F010F914
:100470000546601C02D004480078044400F008F9E6
:10048000401BA042FAD370BD040000202DE9F84FB4
:10049000DFF8C8910024A9F1040B23460F2709F1C6
:1004A000040AABF1040ED1E00125A54006EA0502DD
:1004B000AA4276D1DFF8A8C14E68A6EB0C086645C3
:1004C0002BD00DDC032E34D005DC36B3012E19D031
:1004D000022E2FD11BE0112E16D0122E2AD119E098
:1004E000B8F5881F19D006DCB8F5803F15D0B8F5EF
:1004F000801F1FD111E0B8F5001F0ED0B8F5041F02
:1005000018D10AE0CB6815E0CB681B1D12E0CB6860
:1005100008330FE0CB680C330CE08B682BB1012B58
:100520004FF0080303D0456104E0042302E00561B5
:1005300000E00023FF2A01D8064601E000F104068E
:100540004FEA840501D9A5F12005D6F8008007FA05
:1005500005FC28EA0C0803FA05F548EA0508C6F880
:1005600000804D68ED0070D53E4DAE6946F0010645
:10057000AE61AD6924F0030605F0010500953A4D22
:1005800006EB050CDCF80850A607360F07FA06F84C
:1005900025EA0805DFF8D480404503D14FF0000874
:1005A00025E052E0DFF8C880404502D14FF0010855
:1005B0001DE0DFF8C080404502D14FF0020816E090
:1005C000DFF8B480404502D14FF003080FE0DFF8B8
:1005D000AC80404502D14FF0040808E0DFF8A0806D
:1005E000404502D14FF0050801E04FF0060808FA37
:1005F00006F848EA0508CCF808804D68D9F800608C
:10060000ED024D4601D5164300E096432E604D683D
:10061000DAF80060AD02554601D5164300E0964376
:100620002E604D68DBF80060AD035D4601D51643D2
:1006300000E096432E604D68DEF80060ED037546DD
:1006400001D5164300E096432E60641C0A681646E6
:10065000E2407FF429AFBDE8F88F000008040140B4
:10066000000011100010024000000140000801408D
:10067000000C01400010014000140140001801402E
:10068000001C01400AB1016170470904FBE700004A
:1006900001488068704700000400002070B5040025
:1006A00025D094F83D00002520B984F83C50204620
:1006B00000F050F9242084F83D002068016821F002
:1006C000010101602068016841F400410160206877
:1006D000016821F40041016000F09AFA4D4A616816
:1006E000914201D84C4900E04C49884201D2012096
:1006F00070BD4B492368B0FBF1F15E6826F03F0600
:100700000E435E606368934206D94FF49673594373
:100710004FF47A73B1FBF3F12368491C1E6A26F08B
:100720003F06314319626168914210D84900401E6A
:10073000B0FBF1F2521CC2F30B02042A01D20420D6
:1007400022E0B0FBF1F0401CC0F30B001CE0A268FB
:10075000F2B301EBC10303EB0116431EB3FBF6F347
:100760005B1C43F480431B0549D092B301EBC102EB
:1007700002EB0111401EB0FBF1F0401CC0F30B0076
:1007800040F4804040F400402168CA694CF6FF7391
:100790009A431043C861D4E90710014320680268F6
:1007A00022F0C00211430160D4E903010143206833
:1007B000826848F2FF339A4311438160D4E905010E
:1007C00008432168CA6822F0FF021043C86001E0B4
:1007D0000EE016E02068016841F001010160256427
:1007E000202084F83D00256384F83E50002070BD31
:1007F00001EB4106431EB3FBF6F35B1CB3E701209C
:10080000C2E701EB4101401EB0FBF1F0401CC0F318
:100810000B00B7E7A086010080841E0000093D00A0
:1008200040420F002DE9FF4F83B09A46DDE9119752
:1008300093460446DDF84080FFF72AFF054694F80A
:100840003D0020287FD119230122404920460095F0
:1008500000F0BCFE002876D194F83C00012872D04C
:10086000012084F83C0020680168C90703D10168B1
:1008700041F0010101602068016821F4006101601C
:10088000212084F83D00402084F83E0000262664A4
:10089000C4F82480A4F82A90608D20852C48E0625A
:1008A000CDE9007553465A462046049900F00EFEE5
:1008B00070B930E02A463946204600F02DFF58B185
:1008C000206C042804D12068016841F400710160A3
:1008D000012007B0BDE8F08F606A216800780861E8
:1008E000606A401C6062218D491E89B22185628D3B
:1008F000521E628522685369DB435B070BD469B1E2
:1009000000781061606A401C6062208D401E208566
:10091000608D401E6085208D0028CBD12A46394647
:10092000204600F027FE0028CAD154F83D0B01688C
:1009300041F400710160202004F81E09E677667713
:100940000020C6E7FFE70220C3E700000200100016
:100950000000FFFF10B586B00021009101910291C7
:1009600003910068104988421BD1104CA06940F0E7
:100970000800A061A069694600F0080004904FF4E7
:100980004060009012200190032003900848FFF778
:100990007DFDE06940F48000E061E06900F48000E2
:1009A000049006B010BD0000005800400010024046
:1009B000000C014002488168027811448160704750
:1009C00004000020074810B5016841F010010160E3
:1009D000032000F075F80F2000F006F800F024F86E
:1009E000002010BD0020024070B50D4D04464FF4AC
:1009F0007A712878B1FBF0F00A490968B1FBF0F090
:100A000000F0DCFA48B9102C07D200222146501E13
:100A100000F036F800206C6070BD012070BD000051
:100A200004000020100000200C4808B5816941F046
:100A300001018161816901F001010091C16941F009
:100A40008051C161C06900F0805000900448416845
:100A500021F0E06141F00071416008BD00100240EA
:100A600000000140002809DB00F01F020121914035
:100A70004009800000F1E020C0F80011704700003C
:100A8000F0B40E4B1B680C46C3F30223C3F10705F9
:100A9000042D00D90425191D072901D2002300E0E7
:100AA000DB1E012606FA05F1491E214099409E40B1
:100AB000761E16403143F0BC01F0FCB90CED00E0AD
:100AC000064900F0070208684FF6FF03184040EAA5
:100AD0000220034A10430860704700000CED00E05C
:100AE0000000FA052DE9F0470F46050061D0434E9E
:100AF000306800F00700B84209D2306820F00700E3
:100B000038433060306800F00700B84251D128689F
:100B10003B4C810712D5400703D5606840F4E06084
:100B200060602878000703D5606840F4605060601A
:100B30006068A96820F0F000084360602878C0076A
:100B400028D06868012810D02168022810D08907B1
:100B500000292EDA616821F0030101436160FFF78B
:100B600097FD804641F288390DE021688903EFE75F
:100B70008901EDE7FFF78CFDA0EB0801494502D99B
:100B80000320BDE8F0876068696800F00C00B0EBF6
:100B9000810FEFD1306800F00700B8420BD9306800
:100BA00020F0070038433060306800F00700B8429A
:100BB00001D00120E5E72878400705D56068E9689D
:100BC00020F4E060084360602878000706D560687C
:100BD000296920F4605040EAC100606000F038F8F4
:100BE0006168084AC1F30311515CC84006490860B6
:100BF00006480068FFF7F8FE0020C2E70020024028
:100C000000100240462800081000002008000020C4
:100C10000448054900684968044AC1F30221515C4F
:100C2000C8407047100000200010024056280008FD
:100C30000448054900684968044AC1F3C221515C6F
:100C4000C8407047100000200010024056280008DD
:100C50000E4A51680E4801F00C03042B11D0082BEA
:100C60000FD10C48C1F38343C903C05C0AD5516856
:100C7000084AC1F34041921E515C054A5043B0FB03
:100C8000F1F07047044948437047000000100240EB
:100C900000127A003628000800093D002DE9F84FBF
:100CA000040070D02078C04DC00749D06868C0F3F8
:100CB0008100012807D06868C0F38100022809D1AB
:100CC0006868C00306D52868800339D560680028A5
:100CD000E7D035E06068B0F5803F0BD010B1B0F5DB
:100CE000A02F11D0286820F480302860286820F4D4
:100CF000802002E0286840F480302860606890B16D
:100D0000FFF7C6FC06460AE0286840F48020286009
:100D1000F0E700BFFFF7BCFC801B642873D828688D
:100D20008003F7D50CE0FFF7B3FC064605E000BFF3
:100D3000FFF7AEFC801B6428F0D828688003F7D446
:100D400020789A4E80074FF001094FF0000839D5FE
:100D5000686810F00C0F07D06868C0F381000228A3
:100D600009D16868C00306D42868800714D52069B3
:100D7000012808D110E02069B0B1C6F80090FFF753
:100D800087FC074605E00AE1FFF782FCC01B02284A
:100D9000C4D828688007F7D52868616920F0F80072
:100DA00040EAC10028600DE0C6F80080FFF770FC43
:100DB000074604E0FFF76CFCC01B022823D8286814
:100DC0008007F7D4207800072CD57948A169D9B1DC
:100DD000C0F80090FFF75CFC074604E0FFF758FC02
:100DE000C01B02280FD8686A8007F7D571484FF4F6
:100DF000FA510068B0FBF1F0009000BF0098411E6E
:100E00000091FAD20EE080E0C0F80080FFF740FCCD
:100E1000074604E0FFF73CFCC01B022875D8686A4F
:100E20008007F7D42078400760D5E8690027C00024
:100E300008D4E86940F08050E861E869012700F0D3
:100E4000805000905C480168C90513D4016883464E
:100E500041F480710160FFF71BFC824606E000BF91
:100E6000FFF716FCA0EB0A0064284ED8DBF8000060
:100E7000C005F5D5E06801280AD008B1052813D0CF
:100E8000286A20F001002862286A20F0040002E0AD
:100E9000286A40F001002862E06841F2883B98B17E
:100EA000FFF7F6FB82460BE0286A40F00400286258
:100EB000EEE700BFFFF7ECFBA0EB0A0159455AD85B
:100EC000286A8007F6D50CE0FFF7E2FB824605E0D2
:100ED000FFF7DEFBA0EB0A0159454CD8286A8007D2
:100EE000F6D41FB1E86920F08050E861E06988B36A
:100EF0006968C1F38101022944D00228C6F86080E4
:100F000004D0FFF7C5FB044638E034E0FFF7C0FB30
:100F1000074604E0FFF7BCFBC01B02282BD828685B
:100F20008001F7D4206AB0F5803F05D16868A168D8
:100F300020F4003008436860D4E908010843696878
:100F400021F4741108436860C6F86090FFF7A0FBB5
:100F5000044606E025E000BFFFF79AFB001B0228CD
:100F600009D828688001F7D51BE000BFFFF790FB88
:100F7000001B022802D90320BDE8F88F28688001F1
:100F8000F4D40EE00128F7D06868226A00F48031BA
:100F9000914204D1616A00F47010884201D00120AE
:100FA000EAE70020E8E700000010024000004242AB
:100FB00080044242100000200070004010B5401E26
:100FC000B0F1807F01D3012010BD4FF0E0246061BB
:100FD0000F21601700F06EFF0020A0610720206144
:100FE000002010BD70477047F8B5016804460868D6
:100FF000CA684B6910F00F0F4FF0000559D003F08D
:10100000010602F49077374365D0C10705D0D105BA
:1010100003D5616C41F001016164410705D5D90731
:1010200003D0616C41F002016164810705D5D907E5
:1010300003D0616C41F004016164010707D502F03F
:101040002001314303D0616C41F008016164616C9F
:1010500000293AD0800604D5900602D5204600F03B
:10106000D8FD20684069616CC0F38010090700D486
:1010700060B3204600F0A6FD20684069400621D5F7
:101080002068143050E8001F21F0400140E80012B1
:10109000002AF5D1E06BA8B16D494163E06BFFF721
:1010A0004BF9002811D0E06B416B01B0BDE8F04076
:1010B000084783060FD593060DD52046BDE8F840B6
:1010C00000F0A7BD2046FFF78EFFF8BD2046FFF7D2
:1010D0008AFF6564F8BD266B2023012E7CD1C606ED
:1010E0007AD5D60678D508684868009048694FF0E8
:1010F0000206400640D5E16B086840680004000C19
:10110000E8D0A28D8242E5D9E085886920282DD0DB
:1011100020680C3050E8001F21F4807140E8001274
:10112000002AF5D12068143050E8001F21F0010199
:1011300040E80012002AF5D12068143050E8001F62
:1011400021F0400140E80012002AF5D184F8423035
:10115000256320680C3050E8001F21F0100140E8A2
:101160000012002AF5D1E06BFFF7C2F86663A08D8C
:10117000E18D401A81B22AE0A08DE18D401A81B242
:10118000E08D0028A6D00029A4D022680C3252E8B5
:10119000000F20F4907042E80007002FF5D120687E
:1011A000143050E8002F22F0010240E80027002F01
:1011B000F5D184F84230256320680C3050E8002FC8
:1011C00022F0100240E80023002BF5D16663204690
:1011D000FFF708FFF8BDFFE705062BD5150629D553
:1011E00094F841002128F5D1A068B0F5805F01D1C5
:1011F0002069B0B1206A411C2162216800784860F2
:10120000E08C401E0004000CE084E3D12068C1683B
:1012100021F08001C1602068C16841F04001C160D7
:10122000D8E7206A0088C0F308004860206A801C64
:101230002062E5E74006CDD55006CBD5CA682046EA
:1012400022F04002CA6084F8413000F026F9C1E77C
:10125000B51B000870B5040004D094F841000025C7
:1012600010B106E0012070BD84F84050204600F027
:1012700023F8242084F841002068C16821F400513B
:10128000C160204600F026FD2068016921F49041EC
:1012900001612068416921F02A0141612068C1682B
:1012A00041F40051C1606564202084F8410084F855
:1012B00042006563002070BD30B585B00024009405
:1012C0000194029403940068184988422CD118486C
:1012D000816941F480418161816901F48041049117
:1012E000816941F0040181618069124D00F00400C0
:1012F00004904FF4007000900220019003200390AE
:1013000069462846FFF7C2F82815CDE9000469466A
:1013100028460294FFF7BAF8002211462520FFF76D
:10132000AFFB2520FFF79EFB05B030BD0038014024
:10133000001002400008014090F84230202B01D0FC
:101340000220704721B11AB10023036300F01EBDD3
:101350000120704710B500682049884235D12048E7
:1013600040F2E7314C1C42888A420DD30021418073
:1013700021461C48FEF7FFFE4FF6FF730A221AA112
:101380001C4800F03DF820E0164B41789954521C5F
:1013900091B24180194411F8012C0A2A15D111F893
:1013A000021C0D2911D101210170022212A118463F
:1013B000FEF714FF48B921460A48FEF7DCFE00227A
:1013C0004FF480710D48FFF75DF905490122BDE832
:1013D0001040491C0748FFF7AFBF0000003801402C
:1013E00000000020B4000020CAFDBEDDD2E7B3F645
:1013F000000000006C0000204F4B0000000801407E
:101400002DE9F843044690F841001F4616460D4664
:10141000202802D00220BDE8F8837DB176B10020FB
:101420006064212084F84100FFF732F9A6848046E9
:10143000E684A068B0F5805F02D003E00120EAE70F
:10144000206910B12E4600250EE000260CE0802118
:10145000204600F0B6FCA0B9AEB116F8010B216829
:101460004860E08C401EE084E08C43464FF0000270
:1014700000970028EBD14FF04001204600F0A1FC7E
:1014800030B10320C7E735F8020BC0F30800E6E7E8
:10149000202084F841000020BDE77047FEE7016886
:1014A0004A69D24352050FD46FF480624A61002129
:1014B00040F8301F202242738173026942F0040217
:1014C0000261017301207047002070472DE9F84345
:1014D000044600680D46DDE90897016898461646FF
:1014E00041F4807101604B4600224FF0011120460B
:1014F000009700F06BF848B120680068C00502D57D
:101500004FF4007020640320BDE8F883216805F0E3
:10151000FE0008613B464A461549204600F09EF809
:1015200088B920684169806900903A46494620465A
:1015300000F0F2F848B1206C042804D1206801685A
:1015400041F4007101600120DEE7F5B2B8F1010F4E
:1015500009D02168300A08613A464946204600F021
:10156000DBF80028E7D1206805610020CCE7000007
:101570000200010070B516460D4604461EE02046E6
:10158000FFF78DFF08B1012070BD681C16D0FFF772
:101590007FF8801BA84200D885B920684069C04305
:1015A00040070BD5002044F8300F20216173A07351
:1015B000216941F0200121612073E4E7206840693E
:1015C000C0434007DBD4002070BD00002DE9F04788
:1015D000984617460D460446C1F30746DDF82090AD
:1015E0002AE000BFB8F1FF3F26D0FFF751F8A0EB8B
:1015F0000901414502D8B8F1000F1DD12068012E24
:1016000016D0806925EA00000004000C12D00020EA
:10161000B84211D1002044F8300F20216173A0732B
:10162000216941F02001216120730120BDE8F0878C
:101630004069E7E70120EBE72068012E0AD08069C6
:1016400025EA00000004000C06D00020B842C9D0F2
:101650000020EBE74069F3E70120F7E72DE9F047C9
:10166000984616460D4604464FF000094FF0200AF2
:10167000C1F3074723E020684069C043400515D403
:101680002068016841F40071016021686FF4806096
:101690004861C4F8309084F83DA084F83E90216CF5
:1016A00041F00401216484F83C9021E0701C06D0D4
:1016B000FEF7EEFFA0EB0800B04203D816B1012FF1
:1016C0001FD021E02068012F15D0806925EA000095
:1016D0000004000C18D000BF44F8309F84F80DA01F
:1016E00084F80E90216941F02001216184F80C906A
:1016F0000120BDE8F087406925EA00000004000CE5
:10170000EAD12068406901E02068806925EA00008C
:101710000004000CAFD1ECE770B516460D46044648
:101720001EE02046FFF7BBFE08B1012070BD681C1B
:1017300016D0FEF7ADFF801BA84200D885B92068FF
:101740004069C04300060BD5002044F8300F20212B
:101750006173A073216941F0200121612073E4E7E6
:1017600020684069C0430006DBD4002070BD000043
:1017700070B586B000241848009401940294039434
:10178000816941F020018161816901F020010491AA
:10179000816941F008018161816901F008010491CA
:1017A000816941F0040181618069012200F0040037
:1017B0000A4E1502049029463046FEF763FF0120C9
:1017C0000095CDE901040220039069463046FEF7FA
:1017D0005DFE06B070BD0000001002400008014030
:1017E0000D4810B50B4901600C49416000214FF4D0
:1017F00080428160C0E9031241618161C16101627F
:10180000FEF74CFF002803D0BDE81040FEF76EBD88
:1018100010BD00000058004018000020A086010004
:101820000C4810B50A4901604FF4E13141600021D4
:1018300081600C22C160C0E904128161C161FFF7BF
:1018400009FD002803D0BDE81040FEF74FBD10BDD4
:10185000003801406C000020FEE7FEE7002000F0A9
:1018600001B8000070B506465FF0000404F1B00056
:10187000C0B200F0EBFA002000F0E8FA102000F00F
:10188000E5FA0025304600F0F3FA6D1CEDB2802D2C
:10189000F8D3641CE4B2082CE8D370BD10B5642002
:1018A000FEF7E2FDAE2000F0D1FA202000F0CEFAE3
:1018B000102000F0CBFAB02000F0C8FAC82000F0E9
:1018C000C5FA002000F0C2FA102000F0BFFA402054
:1018D00000F0BCFA812000F0B9FAFF2000F0B6FA5F
:1018E000A12000F0B3FAA62000F0B0FAA82000F082
:1018F000ADFA3F2000F0AAFAA42000F0A7FAD32006
:1019000000F0A4FA002000F0A1FAD52000F09EFA21
:10191000F02000F09BFAD92000F098FA222000F085
:1019200095FADA2000F092FA122000F08FFADB200C
:1019300000F08CFA202000F089FA8D2000F086FA61
:10194000142000F083FABDE81040AF2000F07EBA0A
:1019500010B50446B031C8B200F078FA102040EA61
:10196000141000F073FA04F00F00BDE8104040F0CE
:10197000010000F06BBA00002DE9F0470025914608
:101980008A460446012B22D0DFF8BC80022B24D1EA
:1019900055E02038C7B27E2C04D90AF1010000249A
:1019A00000F0FF0A51462046FFF7D2FF07EB470041
:1019B000002608EB4007B85D00F05AFA761CF6B234
:1019C000062EF8D3A41D6D1CE4B2EDB201E0DFF8E1
:1019D0007C8019F805000028DBD1BDE8F0872038AD
:1019E000C7B2782C04D90AF10100002400F0FF0AE4
:1019F00051462046FFF7ACFF5FF0000606EB0711EB
:101A000018F8010000F034FA761CF6B2082EF5D36F
:101A10000AF10100C1B22046FFF79AFF5FF000060D
:101A200006EB071101EB0800007A00F021FA761CA2
:101A3000F6B2082EF4D308346D1CE4B2EDB219F8F6
:101A400005000028CBD1C8E7442200081C2000086C
:101A5000F0B585B07B212848FEF7B6FB002848D0BA
:101A600026A1FEF793FB060043D026A1FEF78EFBCE
:101A700004004FF000051DD000224FF4807125486E
:101A8000FEF700FE0F3422212046FEF79DFB88B1B1
:101A9000071B3A4621466846FEF78AFB0DF80750B9
:101AA00069461DA000F0F6F9002102236A460846A7
:101AB000FFF762FF1EA13046FEF768FB002818D032
:101AC000083004462221FEF77FFB002811D0061BB8
:101AD000324621466846FEF76BFB0DF80650694614
:101AE00016A000F0D7F902236A4605210020FFF76F
:101AF00043FF05B0F0BD0000B4000020226E6F77F8
:101B0000223A7B002274656D70657261747572652E
:101B1000223A22000008014054656D7065726174BC
:101B20007572653A202573A1E3430D0A0000000099
:101B30002274657874223A220000000057656174AF
:101B40006865723A2025730D0A00000070477047DF
:101B5000FEF730BF30B58FB028216846FEF70BFB8B
:101B600014210AA8FEF707FB01210804CDE90010A3
:101B70000024029402250491CDE907504FF4E010AF
:101B800009906846FFF78AF808B172B6FEE70F20A1
:101B9000CDE90A054FF48060CDE90C4002210AA886
:101BA0000E94FEF79FFF002801D072B6FEE70FB03B
:101BB00030BD704710B5406A0021C185C184FFF770
:101BC00012FA10BD01680C3151E8002F22F4907216
:101BD00041E80023002BF5D10168143151E8002FB2
:101BE00022F0010241E80023002BF5D1016B01290D
:101BF00009D101680C3151E8002F22F0100241E8B0
:101C00000023002BF5D1202180F842100021016330
:101C1000704708B590F84210222901D0022008BD73
:101C200082684FF480539A4201D1016921B1816ADF
:101C30009A421BD04AB10AE00268816A5268C2F334
:101C400008020A80816A891C08E0026972B1026890
:101C5000526802F07F020A70816A491C8162C18D5C
:101C6000491E0904090CC18503D01BE002685268B3
:101C7000F1E70168CA6822F02002CA600168CA68F8
:101C800022F48072CA6001684A6922F001024A6146
:101C9000202180F8421000214163026B012A03D009
:101CA000FFF758FB002008BD016301680C3151E8C3
:101CB000002F22F0100241E80023002BF5D101682B
:101CC0000A68D20602D50A6849680091818DFFF73B
:101CD00089F9E7E770B5044600680169E26821F414
:101CE0004051114301612169A068084361690843BB
:101CF0002168CA6841F20C639A430243CA602068B3
:101D00004169A26921F44071114341611E49206873
:101D1000884202D1FEF78CFF01E0FEF779FF00EB6D
:101D2000C00101EB0012606864218000B2FBF0F397
:101D3000B3FBF1F36FF018067343B2FBF0F5B2FB9F
:101D4000F0F605EB8305322303EB0515B5FBF1F542
:101D5000B6FBF1F605F0F00505EB0615B2FBF0F663
:101D6000B2FBF0F0B0FBF1F06FF01802504306EB5D
:101D7000800003EB0010B0FBF1F0216800F00F00D1
:101D80002844886070BD000000380140816282856F
:101D9000C28500214164222180F84210016921B1ED
:101DA0000168CA6842F48072CA6001684A6942F0F8
:101DB00001024A610068C16841F02001C160002051
:101DC00070472DE9F041984617460E460446069D99
:101DD00027E0681C25D02DB1FEF75AFCA0EB0800C7
:101DE000A8421ED920680C3050E8001F21F4D071A1
:101DF00040E80012002AF5D12068143050E8001F96
:101E000021F0010140E80012002AF5D1202084F8D9
:101E1000410084F84200002084F840000320BDE81F
:101E2000F0812068006836EA000004D00020B84243
:101E3000CFD00020F3E70120F9E700000148FFF7C9
:101E4000D3B800006C000020FEE7000001B584B0AC
:101E50000121642204A88DE807000B4600227821A6
:101E60000248FEF7DFFC05B000BD000018000020AE
:101E700001B584B00121642204A88DE807000B4657
:101E8000402278210248FEF7CDFC05B000BD0000DD
:101E9000180000200FB4054B10B503A9044A02989E
:101EA00000F027F810BC5DF814FB0000C91F000803
:101EB000140000200907090E002804DB00F1E020CF
:101EC00080F80014704700F00F0000F1E02080F867
:101ED000141D704702E008C8121F08C1002AFAD179
:101EE00070477047002001E001C1121F002AFBD19A
:101EF00070472DE9F84F99469246884605460027D7
:101F000006E025280AD051464A4690476D1C7F1CA2
:101F100028780028F5D13846BDE8F88F002315F859
:101F2000011F18462E2915D115F8011F04232A294F
:101F30000DD06FF02F022978A1F13004092C09D8B7
:101F400000EB800002EB400008446D1CF3E758F8FA
:101F5000040B6D1C2A78002ADDD0632A07D0732A6F
:101F60000FD0104651464A4690477F1C2AE018F889
:101F7000042B8DF8002000218DF801106E46012100
:101F800003E058F8046B4FF0FF315A074FF000049C
:101F900001D409E0641C84420BDA8C42FADB325D26
:101FA000002AF7D105E0641C8C42FCDB305D002880
:101FB000F9D1274404E016F8010B51464A469047F0
:101FC000641EF8D26D1CA3E704490A685206FCD5CA
:101FD000024AC1B2121D1160704700000038014072
:101FE000FEF7F0FCFFF7B6FDFFF7C2FBFFF718FCAA
:101FF000FFF7F6FB012207490748FFF79DF9FFF7B6
:102000004DFCFFF72BFCFEF70DF900BFFFF720FD9D
:10201000FCE70000010000206C0000200000000030
:1020200000000000002F000000000700070000145F
:102030007F147F1400242A7F2A120062640813236D
:1020400000364955225000000503000000001C2204
:102050004100000041221C000014083E0814000842
:10206000083E0808000000A06000000808080808F2
:10207000000060600000002010080402003E51498A
:10208000453E0000427F4000004261514946002128
:1020900041454B31001814127F1000274545453942
:1020A000003C4A494930000171090503003649499D
:1020B000493600064949291E000036360000000056
:1020C00056360000000814224100001414141414A1
:1020D000000041221408000201510906003249594A
:1020E000513E007C1211127C007F49494936003E66
:1020F00041414122007F4141221C007F4949494121
:10210000007F09090901003E4149497A007F08081A
:10211000087F0000417F4100002040413F01007FD7
:1021200008142241007F40404040007F020C027FA3
:10213000007F0408107F003E4141413E007F0909B5
:102140000906003E4151215E007F091929460046DB
:10215000494949310001017F0101003F4040403FB2
:10216000001F2040201F003F4038403F00631408FC
:1021700014630007087008070061514945430000D7
:102180007F41410000552A552A55000041417F00FA
:1021900000040201020400404040404000000102EF
:1021A0000400002054545478007F484444380038D8
:1021B0004444442000384444487F00385454541860
:1021C00000087E0901020018A4A4A47C007F080472
:1021D00004780000447D4000004080847D00007F42
:1021E000102844000000417F4000007C041804785F
:1021F000007C0804047800384444443800FC24245B
:1022000024180018242418FC007C08040408004842
:102210005454542000043F444020003C4040207C63
:10222000001C2040201C003C4030403C0044281052
:102230002844001CA0A0A07C004464544C44141406
:10224000141414140000000000000000000000003E
:1022500000000000000000F8000000000000003353
:102260003000000000100C06100C060000000000FA
:102270000000000040C07840C0784000043F0404E3
:102280003F040400007088FC08300000001820FFA4
:10229000211E0000F008F000E018000000211C03DF
:1022A0001E211E0000F00888700000001E2123245B
:1022B0001927211010160E00000000000000000079
:1022C00000000000000000E0180402000000000709
:1022D0001820400000020418E00000000040201810
:1022E00007000000404080F0804040000202010FE3
:1022F00001020200000000F0000000000101011FC7
:1023000001010100000000000000000080B070002A
:1023100000000000000000000000000000010101BA
:102320000101010100000000000000000030300049
:102330000000000000000000806018040060180623
:102340000100000000E010080810E000000F10205D
:1023500020100F00001010F8000000000020203FA7
:102360002020000000700808088870000030282431
:1023700022213000003008888848300000182020D2
:1023800020110E000000C02010F8000000070424F7
:10239000243F240000F8088888080800001921203C
:1023A00020110E0000E0108888180000000F112096
:1023B00020110E0000380808C83808000000003F4F
:1023C000000000000070880808887000001C2221AE
:1023D00021221C0000E010080810E000000031225B
:1023E00022110F00000000C0C000000000000030FB
:1023F000300000000000008000000000000080604D
:1024000000000000000080402010080000010204CD
:1024100008102000404040404040400004040404B4
:102420000404040000081020408000000020100870
:1024300004020100007048080808F00000000030A5
:1024400036010000C030C828E810E0000718272433
:1024500023140B000000C038E0000000203C2302E1
:102460000227382008F8888888700000203F202044
:1024700020110E00C0300808080838000718202076
:102480002010080008F808080810E000203F20206D
:1024900020100F0008F88888E8081000203F20204E
:1024A0002320180008F88888E8081000203F200042
:1024B00003000000C030080808380000071820207A
:1024C000221E020008F808000008F808203F210139
:1024D00001213F20000808F8080800000020203FE4
:1024E0002020000000000808F8080800C080808054
:1024F0007F00000008F888C028180800203F20014D
:102500002638200008F8080000000000203F2020A6
:102510002020300008F8F800F8F80800203F003FBD
:10252000003F200008F830C00008F808203F2000D5
:1025300007183F00E01008080810E0000F102020E6
:1025400020100F0008F808080808F000203F2101BB
:1025500001010000E01008080810E0000F18242412
:1025600038504F0008F8888888887000203F200085
:10257000030C30200070880808083800003820213B
:1025800021221C00180808F8080818000000203F45
:102590002000000008F808000008F808001F2020AC
:1025A00020201F000878880000C83808000007387D
:1025B0000E010000F80800F80008F800033C0700CE
:1025C000073C0300081868808068180820302C0336
:1025D000032C30200838C800C83808000000203F0D
:1025E0002000000010080808C838080020382621FC
:1025F00020201800000000FE020202000000007F00
:1026000040404000000C30C000000000000000010D
:102610000638C00000020202FE00000000404040F8
:102620007F0000000000040202020400000000001D
:10263000000000000000000000000000808080809A
:102640008080808000020204000000000000000082
:10265000000000000000808080800000001924221B
:1026600022223F2008F8008080000000003F112057
:1026700020110E000000008080800000000E11205C
:1026800020201100000000808088F800000E11203A
:1026900020103F200000808080800000001F222248
:1026A00022221300008080F0888888180020203FB4
:1026B000202000000000808080808000006B9494C7
:1026C0009493600008F8008080800000203F210083
:1026D00000203F2000809898000000000020203F4C
:1026E00020200000000000809898000000C080803A
:1026F000807F000008F8000080808000203F2402D6
:102700002D302000000808F8000000000020203FC5
:10271000202000008080808080808000203F20007A
:102720003F20003F8080008080800000203F21000B
:1027300000203F200000808080800000001F2020BB
:1027400020201F00808000808000000080FFA120EA
:1027500020110E000000008080808000000E1120FB
:1027600020A0FF80808080008080800020203F218A
:10277000200001000000808080808000003324243D
:1027800024241900008080E0808000000000001FE9
:10279000202000008080000000808000001F20209A
:1027A00020103F20808080000080808000010E305B
:1027B0000806010080800080008080800F300C03BC
:1027C0000C300F0000808000808080000020312EBF
:1027D0000E312000808080000080808080818E709B
:1027E0001806010000808080808080000021302C4D
:1027F0002221300000000000807C02020000000066
:10280000003F404000000000FF000000000000000A
:10281000FF0000000002027C800000000040403FFA
:102820000000000000060101020204040000000094
:1028300000000000010202030405060708090A0B54
:102840000C0D0E0F1010000000000000000001022F
:102850000304060708090000000001020304000049
:102860004745542068747470733A2F2F6170692E35
:1028700073656E6976657273652E636F6D2F76333F
:102880002F776561746865722F6E6F772E6A736F2C
:102890006E3F6B65793D5378305742566A6C766D62
:1028A0004F6664435A6554266C6F636174696F6E3A
:1028B0003D6265696A696E67266C616E67756167FE
:1028C000653D656E26756E69743D630D0A000000F6
:1028D000F02800080000002018000000D41E0008A6
:1028E000082900081800002088080000E41E0008DD
:1028F00000000000010000001000000000000000C7
:082900000024F40000000000B7
:0400000508000131BD
:00000001FF
